:020000040000FA
:100000000000D62846248312AA01AB01AC01AD0141
:1000100083122B08803E803E031D10280A302A02DE
:100020000318322883122C08A03EAE000030AF0027
:100030002D0803182D0FAF072E0883128400831399
:1000400083122F188317FF3083128000840AFF3039
:10005000800002308312AC070318AD0AAA0A031904
:10006000AB0A08288312AA018312851E392883123D
:10007000AA0A83122A08013A031D32288312620851
:10008000803E803E031D46280A30610203188728FF
:1000900034248312AB007F08AA00FF002B080A2338
:1000A0008312AD007F08AC002D04031D4828831285
:1000B00061088312AC00831262088312AD008312C0
:1000C000E10A0319E20A83122C08FD002D08FE0044
:1000D0000230FF00003072218312AD007F08AC00B7
:1000E000A03EAC002D0803182D0F003EAD002C08DB
:1000F00083128400831383122D1883172A08831216
:100100008000840A83122B0883128000CF28831278
:100110006408803E803E031D8F280330630203186D
:100120009A2863308312AA00AB018312E30A0319F1
:10013000E40ACF288312E101E2018312E301E40122
:100140008312AC01AD01AE01AF0183122D08803ED8
:10015000803E031DAD280A302C020318322883127A
:100160002E08A03EB0000030B1002F0803182F0F5A
:10017000B107300883128400831383123118831768
:10018000FF3083128000840AFF3080000230831227
:10019000AE070318AF0AAC0A0319AD0AA5288312EB
:1001A0002A08FF002B08BD23322808001A30FE0061
:1001B0000430FF00803000000000892300000000B0
:1001C00083160000B5007F08B4001C30B600043070
:1001D000B700831600003408B8003508B900FF30B6
:1001E000B407031CB5033908380403196E29043019
:1001F0003607B800B901B90D3708B9073808FE004D
:100200003908FF0080300000000089230000000052
:1002100083160000BB007F08BA003608FE003708CE
:10022000FF008030000000008923000000008316DA
:100230000000BD00B9007F08B800BC0002303607DE
:10024000B800B901B90D3708B9073808FE003908F8
:10025000FF008030000000008923000000008316AA
:100260000000B900BF007F08BE00B8008316000080
:100270003A08BE003B08BF00FF30BA07031CBB03AF
:100280003F083E04031967293C08FE003D08FF00B3
:10029000803000000000AA23000000008316000048
:1002A000BE003808831203138400831383160000F2
:1002B000391883173E088312031380008316000049
:1002C000BC0A0319BD0AB80A0319B90A362906304F
:1002D00083160000B6070318B70AE92800000000DB
:1002E0000228080083120000B3007F088312000078
:1002F000B60083120000B2007E08B5007D088312AC
:100300000000B80083120000B4003308831200001C
:10031000B70083120000350883120000B900831271
:100320000000360883120000B20083120000380873
:1003300083120000B300FF00320800000000EF232A
:100340000000000083120000B3007F08B200831297
:100350000000BA0083120000330883120000BB00C3
:1003600083120000B20083120000360883120000DE
:10037000B30083120000390883120000B400FF00AC
:10038000330800000000EF23000000007F08831204
:100390000000B30083120000370883120000B4008D
:1003A00083120000380883120000B500FF003408F3
:1003B00000000000EF23000000007F08831200000F
:1003C000B400B3073308B207320883120000BB0041
:1003D0003A0883120000B200831200003B08831227
:1003E0000000B3003208FF00330808008312000049
:1003F000BD007F08BC007E08BF007D08BE0003145E
:10040000BD1F0310C001C00D400803190F2A3C098D
:10041000C1003D09C200C10A0319C20A152A83128C
:1004200000003C08C1003D08C200831200004108E2
:10043000BC004208BD000314BF1F0310C101C10D61
:10044000410803192B2A3E09C2003F09C300C20A12
:100450000319C30A312A831200003E08C2003F0874
:10046000C300831200004208BE00FD004308BF0025
:10047000FE003C08FF003D08000000004F23000084
:10048000000083120000BD007F08BC004108C006C8
:1004900040080319562A3C09C0003D09BE00C00AA5
:1004A0000319BE0A4008FF003E085B2A83120000C1
:1004B0003C08FF003D08080083120000D4007F08BC
:1004C000D3007E08D6007D08D5000314D41F031086
:1004D000D701D70D57080319752A5309D8005409B5
:1004E000D900D80A0319D90A7B2A831200005308BD
:1004F000D8005408D900831200005808D3005908C6
:10050000D4000314D61F0310031C8E2A5509D800EB
:100510005609D900D80A0319D90A942A831200006F
:100520005508D8005608D900831200005808D50095
:10053000FD005908D600FE005308FF0054080000D3
:100540000000BD220000000083120000D4007F08DC
:10055000D30057080319B72A5309D7005409D50007
:10056000D70A0319D50A5708FF005508BC2A831279
:1005700000005308FF005408080083120000CD005B
:100580007F08CC007E08CF007D08CE00D001D101CD
:10059000831200004F088039031D0130D200520839
:1005A000031DE92A0310CE0DCF0D4F084D02031D88
:1005B000DB2A4E084C020318E32A031083120000C2
:1005C000CF0CCE0CE92A83120000D10A5108D000CA
:1005D000C82A831200004F084D02031DF12A4E085D
:1005E0004C02031CFB2A831200004E08CC024F0869
:1005F000031C4F0FCD02031083120000CF0CCE0C52
:100600005008D100D0035108031DE92A4C08FF000F
:100610004D0808008312A0007F08A100A401A201D8
:10062000A301A50183122208803E803E031D1A2BE0
:100630000A30240203184B2B83122308A03EA60085
:100640000030A70025080318250FA70726088312E6
:1006500084008313831227188317831200088312E0
:10066000A8008312840A00088312A9002108280622
:10067000031D422B20082906031D422B0130FF00D9
:1006800000304E2B02308312A3070318A50AA40AD8
:100690000319A20A122B0030FF0000300800831259
:1006A0000000C5007F08C4007E08C7007D08C600A2
:1006B000C801C9011030CA00831200004508803902
:1006C000031D0130CB000310C40DC50D0310C80D70
:1006D000C90D4B08031D481447084902031D722B1E
:1006E00046084802031C7D2B831200004608C802FE
:1006F0004708031C470FC9024414831200004A0331
:10070000CB00CA004B08031D5C2B4408FF004508C2
:100710000800003A0319912B803A03199B2BFF0123
:1007200000347E08840083137F1883170008FF00BD
:10073000840A0008080000000000B823FD00FE0F36
:10074000FF03FF0A00000000B823FC007D08FF0043
:100750007C080800003A0319B12B803A0319B82B22
:1007600000347E08840083137F1883170008080074
:100770007F088A007E08820008008312A0007F089C
:10078000A1000A30FD000030FE002108FF00200813
:10079000F6217F088312A2000A30FD000030FE001F
:1007A0002108FF0020085C228312A0007F08A1001E
:1007B000A300230C0318DE2B83120510031CE22B6D
:1007C0008312051483122208A100210C0318EA2BBE
:1007D00083128510031CEE2B8312851408008312EC
:1007E0000000DA007F08DB00DC01DD01DE010830FB
:1007F000831200005E020318142C0310DC0DDD0DC3
:10080000DA1F0B2C0030E0005B08DF00DC0760081B
:100810000318600FDD07831200005A08DF00031081
:100820005F0DDA00DE0AF72B831200005C08FF0080
:100830005D080800043400344D340434613400345D
:10084000023400344F34043463340034023400344E
:1008500051340434653400340234003453340434E5
:1008600067340034013400348312E50A0319E60AC0
:100870006430FD000030FE006508FF006608BD2200
:100880008312A0007F08FF002008080083169F0144
:1008900020308500831285010800003400340034C4
:0808A000003400340034003480
:00000001FF
