:020000040000FA
:1000000000000228C530FE000330FF0080300000F1
:10001000000019230000000083160000B5007F08CF
:10002000B400C730B6000330B700831600003408B0
:10003000B8003508B900FF30B407031CB503390810
:10004000380403199A2804303607B800B901B90DED
:100050003708B9073808FE003908FF008030000073
:10006000000019230000000083160000BB007F0879
:10007000BA003608FE003708FF008030000000009C
:1000800019230000000083160000BD00B9007F089E
:10009000B800BC0002303607B800B901B90D370806
:1000A000B9073808FE003908FF0080300000000062
:1000B00019230000000083160000B900BF007F086C
:1000C000BE00B800831600003A08BE003B08BF001F
:1000D000FF30BA07031CBB033F083E0403199328F3
:1000E0003C08FE003D08FF008030000000003A237D
:1000F0000000000083160000BE00380883120313BE
:100100008400831383160000391883173E08831276
:100110000313800083160000BC0A0319BD0AB80A45
:100120000319B90A6228063083160000B6070318BF
:10013000B70A1528000000009E280800F523E322D6
:100140008312AE018312851EA7288312AE0A831282
:100150002E08013A031DFD2883124B08803E803E85
:10016000031DB4280A304A020318FD28A223831273
:10017000AF007F08AE00FF002F0897228312B10066
:100180007F08B0003104031DB62883124A08831289
:10019000B00083124B088312B1008312CA0A0319FC
:1001A000CB0A83123008FD003108FE000230FF0048
:1001B000003026218312B1007F08B000A03EB000BD
:1001C00031080318310F003EB1003008831284005B
:1001D00083138312311883172E0883128000840A38
:1001E00083122F088312800083122E08FF002F082D
:1001F000FA21D030FF000730782383124B08803E6D
:10020000803E031D05290A304A02031CA0288312E0
:100210004F08803E803E031D0F2903304E02031815
:10022000A028E5238312CE0A0319CF0A4F08803E87
:10023000803E031D1D2903304E02031CA028E83018
:10024000FF0003307823E322A02808008312000077
:10025000B3007F0883120000B60083120000B200D2
:100260007E08B5007D0883120000B80083120000EC
:10027000B400330883120000B70083120000350871
:1002800083120000B90083120000360883120000B8
:10029000B20083120000380883120000B300FF0090
:1002A0003208000000004D2300000000831200000F
:1002B000B3007F08B20083120000BA00831200006E
:1002C000330883120000BB0083120000B2008312C7
:1002D0000000360883120000B300831200003908C2
:1002E00083120000B400FF003308000000004D231B
:1002F000000000007F0883120000B300831200009A
:10030000370883120000B4008312000038088312FB
:100310000000B500FF003408000000004D2300007D
:1003200000007F0883120000B400B3073308B2074F
:10033000320883120000BB003A0883120000B200AA
:10034000831200003B0883120000B3003208FF0054
:1003500033080800A2238312AB007F08AA0083128F
:100360002A08FF002B0897228312AD007F08AC00FB
:100370002D040319C129A2238312AB007F08AA0010
:10038000AF2983124A088312AC0083124B088312F0
:10039000AD008312CA0A0319CB0A83122C08FD0090
:1003A0002D08FE000230FF00003026218312AD0030
:1003B0007F08AC00A03EAC002D0803182D0F003EB6
:1003C000AD002C0883128400831383122D18831729
:1003D0002A0883128000840A83122B08831280006B
:1003E00083122A08FF002B08FA21E830FF000330AF
:1003F000782308008312A1007F08A000F030831248
:10040000850503148312A11F03100318492A21082C
:10041000803E803E031D0E2A0A3020020318492A1E
:1004200083122008A2000730A20522088312850447
:1004300083122108803E803E031D202A08302002BE
:10044000031C492A8312A0018312051E292A831244
:10045000A00A83122008A1000130A0002108A11BDE
:100460003A2A003C0319422A8312A00D013E031CC4
:10047000342A422A03108312A01B0314A00C013E4D
:10048000031C3A2A831205088312A1002004831258
:100490008500080083120000BD007F08BC007E08B4
:1004A000BF007D08BE00C001C101831200003F08EB
:1004B0008039031D0130C2004208031D762A031053
:1004C000BE0DBF0D3F083D02031D682A3E083C02D9
:1004D0000318702A031083120000BF0CBE0C762A8A
:1004E00083120000C10A4108C000552A831200008F
:1004F0003F083D02031D7E2A3E083C02031C882A59
:10050000831200003E08BC023F08031C3F0FBD02DF
:10051000031083120000BF0CBE0C4008C100C003D2
:100520004108031D762A3C08FF003D08080083129D
:10053000A1007F08A000A201A301A401A5018312CC
:100540002308803EA60083124B08803E83122602B9
:10055000031DAE2A83124A08831222020318DF2ADF
:1005600083122408A03EA6000030A7002508031827
:10057000250FA707260883128400831383122718E8
:100580008317831200088312A8008312840A0008CC
:100590008312A90020082806031DD62A210829064F
:1005A000031DD62A0130FF000030E22A02308312F8
:1005B000A4070318A50AA20A0319A30A9F2A003058
:1005C000FF00003008008312A101A001A201A301D5
:1005D00083122008803E803E031DF02A0A3021024B
:1005E0000318122B83122208A03EA4000030A5009D
:1005F00023080318230FA5072408831284008313FC
:10060000831225188317FF3083128000840AFF307D
:10061000800002308312A2070318A30AA10A03195B
:10062000A00AE82A8312CA01CB018312CE01CF01AE
:100630000800003A0319212B803A03192B2BFF01E4
:1006400000347E08840083137F1883170008FF009E
:10065000840A00080800000000004823FD00FE0F87
:10066000FF03FF0A000000004823FC007D08FF0094
:100670007C080800003A0319412B803A0319482BE3
:1006800000347E08840083137F1883170008080055
:100690007F088A007E088200080083120000C300E1
:1006A0007F08C400C501C601C701083083120000DD
:1006B00047020318722B0310C50DC60DC31F692B0B
:1006C0000030C9004408C800C50749080318490F8D
:1006D000C607831200004308C8000310480DC3007A
:1006E000C70A552B831200004508FF004608080082
:1006F0008312A1007F08A000A201A3018312210898
:100700002302031D852B200822020318A12BC830C9
:100710008312A400A501FF3083122407A600FF3036
:10072000A70025080318250FA7072608A4002708F7
:10073000A50027082604031D8B2BA20A0319A30A70
:100740007E2B08008312D00A0319D10A5008FD003D
:100750005108FE00CF30FF007F3026218312A10018
:100760007F08A0000330A0070318A10A0A30FD008B
:100770000030FE002008FF0021084A228312A10059
:100780007F08A000FF002108080005340034FC3475
:1007900003344A34003402340034FE3403344C341D
:1007A000003402340034003404344E340034023453
:1007B000003402340434503400340234003404343D
:1007C000043452340034013400340930FF00003066
:1007D000FA21E830FF0003307823F03083128505DA
:1007E000F430FF0001307823080083169F01203089
:1007F0008500831285010800003400340034003481
:0A08000000340034003400340034EA
:00000001FF
