:1000000014C01BC01AC019C018C017C016C015C034
:1000100014C013C012C011C010C00FC00EC00DC05C
:100020000CC00BC00AC009C008C011241FBECFE518
:10003000D1E0DEBFCDBF0ED03CC0E2CFB898C09AB1
:1000400087B38E6187BB089598B3880F917E982BF4
:1000500098BB0895F3DF20E030E040E0A8E8B3E18A
:1000600069E170E004C021E030E040E003C0211508
:10007000310521F021303105D1F707C086B3CD011C
:100080000197F1F7B09BFECFEECF473018F022E09A
:1000900030E0F0CF80E197E2FB013197F1F7019773
:1000A000D9F74F5F88B3942F990F817E982B98BB17
:0600B000E1CFF894FFCF40
:00000001FF
