:100000001EC056C037C036C035C034C033C032C041
:1000100031C030C02FC02EC02DC02CC02BC02AC074
:1000200029C028C027C026C025C03BC116C13DC17C
:10003000C4C13DC166C167C18EC18FC1BBC111249E
:100040001FBECFE5D1E0DEBFCDBF10E0A0E6B0E03F
:10005000EEECF3E002C005900D92A636B107D9F799
:1000600010E0A6E6B0E001C01D92A037B107E1F7AD
:10007000C4D0ABC1C5CF8A98929A87B38F7187BB22
:1000800088B3806E88BBB89AC098899A91988B9AE9
:1000900093988C9A94988D9A959887B38E6187BB24
:1000A00085B7826085BF8BB780648BBF78940895D5
:1000B0001F920F920FB60F9211248F939F9388E88F
:1000C00093E10197F1F780916600909167000297A4
:1000D00019F483E090E00EC0809166009091670073
:1000E000039731F08091660090916700892B31F47D
:1000F00082E090E0909367008093660080916600B4
:1001000090916700059719F486E090E008C080910F
:10011000660090916700069731F485E090E0909337
:100120006700809366008091660090916700079752
:1001300019F488E090E008C0809166009091670013
:10014000089731F487E090E0909367008093660011
:100150008091660090916700099719F48AE090E019
:1001600008C080916600909167000A9731F489E099
:1001700090E090936700809366009F918F910F901D
:100180000FBE0F901F901895B5990CC088E893E1A9
:100190000197F1F781E080936C0093E090936D00FC
:1001A00082E00DC0B69910C088E893E10197F1F79D
:1001B00082E080936C0095E090936D0084E08093E2
:1001C0006E0090936F000895B79910C088E893E18E
:1001D0000197F1F783E080936C0087E080936D00D6
:1001E00085E080936E0086E080936F00089598B359
:1001F000880F917E982B98BB0895AF92BF92CF92B3
:10020000DF92EF92FF920F931F93CF93DF9333DF31
:10021000C9E1D0E024E0C22ED12C99E0A92EB12C66
:1002200087E0E82EF12C05E010E0809166009091C7
:100230006700892B31F080916600909167000197EB
:1002400009F4A2DFE0916600F09167003197EA308F
:10025000F10558F7EB5EFF4F09949091680080918B
:100260006C00981780F4919A80E197E2FE01319733
:10027000F1F70197D9F7809168008F5F809368004C
:100280009091680080C080E197E2FE013197F1F71C
:100290000197D9F791981093670000936600109228
:1002A000690088B3817E88BBC0CF9198BECFC09AC9
:1002B0009091690080916D00981788F4C09A939A84
:1002C00080E197E2FE013197F1F70197D9F780912C
:1002D00069008F5F809369009091690054C080E14C
:1002E00097E2FE013197F1F70197D9F7C0989398FB
:1002F000C09888B3817E88BBF0926700E092660068
:1003000094CF939858C090916A0080916E0098178E
:1003100088F4C09A949A80E197E2FE013197F1F750
:100320000197D9F780916A008F5F80936A0090915E
:100330006A0029C080E197E2FE013197F1F7019749
:10034000D9F79498C09888B3817E88BBB092670033
:10035000A09266006ACF94982EC090916B00809115
:100360006F009817B0F4C09A959A80E197E2FE0169
:100370003197F1F70197D9F780916B008F5F8093E8
:100380006B0090916B0088B3990F817E982B98BB7E
:100390004CCF80E197E2FE013197F1F70197D9F751
:1003A0009598C09888B3817E88BBD0926700C09230
:1003B00066003BCF9598C09838CF80E197E2FE0168
:0E03C0003197F1F70197D9F76CCFF894FFCF82
:0603CE000001030405001C
:00000001FF
